:020000040000FA
:1000000001288316031386018801831203138601D6
:1000100088010030A3000030A2000030A1000030B1
:10002000A0000930A70016202B20132823088800E1
:1000300001308600572022088800023086005720B1
:1000400021088800043086005720200888000830E6
:10005000860057200800A00A2E2808000310200858
:100060002702031C342808000030A000A10A392808
:100070000800031021082702031C3F280800003055
:10008000A100A20A44280800031022082702031C2A
:100090004A2808000030A200A30A4E2803102308B3
:1000A0002702031C542808000030A30008000A306F
:1000B000A4003230A5003230A600A60B5D28A50BA7
:0800C0005B28A40B592808007D
:00000001FF
