:1000000000308A001828000026308400831300087E
:10001000031917280630F800F701F70B0D28F80B25
:100020000C287B30F700F70B1328800B0A280800F8
:1000300083161F149F141F159F1107309C008313F4
:100040001F30830501308312A2008030A3000130ED
:10005000A4002408073C031C3E2883168601831253
:10006000210886006430A60004200310A20D0310AE
:10007000A30C22082304A100A40A29280130A5000A
:100080002508073C031C5528831686018312210886
:1000900086006430A60004200310A20C0310A30DF8
:0E00A00022082304A100A50A40282728630097
:02400E00323F3F
:00000001FF
;PIC16F877A
;CRC=86D5  CREATED="29-Jul-20 22:03"
