:020000040000FA
:0200000039289D
:080008000528FD000308FE00BD
:100010000A08FF000B11FA30A302031D1428A40BD9
:10002000142867200430A4007F088A007E0883001B
:10003000FD0E7D0E090082073F3406345B344F34D9
:1000400066346D347D3407347F346F348316031384
:100050008B128B13023081008601831203138601F9
:1000600082308100FA30A3000430A4008B168B1775
:10007000080026208316031306309F003C308316A9
:10008000031385008316031386018312031386016D
:10009000A101A20158204F2061204F204A2864303E
:1000A000A5006430A600A60B5328A50B5128080014
:1000B0000311831203130230850021081B208600E0
:1000C00008000130850022081B208600080003116B
:1000D000A10A0A302102031D0800A1010311A20A8E
:0C00E00006302202031D0800A2010800E7
:02400E00313F40
:00000001FF
